{
  "contractName": "Canteen",
  "abi": [
    {
      "constant": true,
      "inputs": [
        {
          "name": "",
          "type": "uint256"
        }
      ],
      "name": "members",
      "outputs": [
        {
          "name": "",
          "type": "string"
        }
      ],
      "payable": false,
      "stateMutability": "view",
      "type": "function"
    },
    {
      "constant": true,
      "inputs": [
        {
          "name": "",
          "type": "uint256"
        }
      ],
      "name": "images",
      "outputs": [
        {
          "name": "",
          "type": "string"
        }
      ],
      "payable": false,
      "stateMutability": "view",
      "type": "function"
    },
    {
      "constant": true,
      "inputs": [],
      "name": "owner",
      "outputs": [
        {
          "name": "",
          "type": "address"
        }
      ],
      "payable": false,
      "stateMutability": "view",
      "type": "function"
    },
    {
      "inputs": [],
      "payable": false,
      "stateMutability": "nonpayable",
      "type": "constructor"
    },
    {
      "anonymous": false,
      "inputs": [
        {
          "indexed": false,
          "name": "host",
          "type": "string"
        }
      ],
      "name": "MemberJoin",
      "type": "event"
    },
    {
      "anonymous": false,
      "inputs": [
        {
          "indexed": false,
          "name": "host",
          "type": "string"
        }
      ],
      "name": "MemberLeave",
      "type": "event"
    },
    {
      "anonymous": false,
      "inputs": [
        {
          "indexed": false,
          "name": "host",
          "type": "string"
        },
        {
          "indexed": false,
          "name": "image",
          "type": "string"
        }
      ],
      "name": "MemberImageUpdate",
      "type": "event"
    },
    {
      "constant": false,
      "inputs": [
        {
          "name": "host",
          "type": "string"
        }
      ],
      "name": "addMember",
      "outputs": [],
      "payable": false,
      "stateMutability": "nonpayable",
      "type": "function"
    },
    {
      "constant": false,
      "inputs": [
        {
          "name": "host",
          "type": "string"
        }
      ],
      "name": "removeMember",
      "outputs": [],
      "payable": false,
      "stateMutability": "nonpayable",
      "type": "function"
    },
    {
      "constant": false,
      "inputs": [
        {
          "name": "name",
          "type": "string"
        },
        {
          "name": "replicas",
          "type": "uint256"
        }
      ],
      "name": "addImage",
      "outputs": [],
      "payable": false,
      "stateMutability": "nonpayable",
      "type": "function"
    },
    {
      "constant": false,
      "inputs": [
        {
          "name": "name",
          "type": "string"
        }
      ],
      "name": "removeImage",
      "outputs": [],
      "payable": false,
      "stateMutability": "nonpayable",
      "type": "function"
    },
    {
      "constant": false,
      "inputs": [
        {
          "name": "name",
          "type": "string"
        },
        {
          "name": "from",
          "type": "uint256"
        },
        {
          "name": "to",
          "type": "uint256"
        }
      ],
      "name": "addPortForImage",
      "outputs": [],
      "payable": false,
      "stateMutability": "nonpayable",
      "type": "function"
    },
    {
      "constant": true,
      "inputs": [
        {
          "name": "name",
          "type": "string"
        }
      ],
      "name": "getPortsForImage",
      "outputs": [
        {
          "name": "",
          "type": "uint256[2][]"
        }
      ],
      "payable": false,
      "stateMutability": "view",
      "type": "function"
    },
    {
      "constant": true,
      "inputs": [
        {
          "name": "host",
          "type": "string"
        }
      ],
      "name": "getMemberDetails",
      "outputs": [
        {
          "name": "",
          "type": "string"
        },
        {
          "name": "",
          "type": "bool"
        }
      ],
      "payable": false,
      "stateMutability": "view",
      "type": "function"
    },
    {
      "constant": true,
      "inputs": [
        {
          "name": "name",
          "type": "string"
        }
      ],
      "name": "getImageDetails",
      "outputs": [
        {
          "name": "",
          "type": "uint256"
        },
        {
          "name": "",
          "type": "uint256"
        },
        {
          "name": "",
          "type": "bool"
        }
      ],
      "payable": false,
      "stateMutability": "view",
      "type": "function"
    },
    {
      "constant": true,
      "inputs": [],
      "name": "getMembersCount",
      "outputs": [
        {
          "name": "",
          "type": "uint256"
        }
      ],
      "payable": false,
      "stateMutability": "view",
      "type": "function"
    },
    {
      "constant": true,
      "inputs": [],
      "name": "getImagesCount",
      "outputs": [
        {
          "name": "",
          "type": "uint256"
        }
      ],
      "payable": false,
      "stateMutability": "view",
      "type": "function"
    }
  ],
  "bytecode": "0x6060604052620186a0600655341561001657600080fd5b336000806101000a81548173ffffffffffffffffffffffffffffffffffffffff021916908373ffffffffffffffffffffffffffffffffffffffff1602179055506128b1806100656000396000f3006060604052600436106100c5576000357c0100000000000000000000000000000000000000000000000000000000900463ffffffff16806309772f8f146100ca5780631b73aeff146100f35780633e71b33d146101765780635bac6cd31461024b5780635daf08ca146102b15780637be526091461034d57806384856482146103aa5780638742993d146104465780638da5cb5b1461046f578063918f9687146104c4578063b33db7b914610521578063f55365a114610590578063fe1d3fd2146105ed575b600080fd5b34156100d557600080fd5b6100dd6106ce565b6040518082815260200191505060405180910390f35b34156100fe57600080fd5b61014e600480803590602001908201803590602001908080601f016020809104026020016040519081016040528093929190818152602001838380828437820191505050505050919050506106db565b6040518084815260200183815260200182151515158152602001935050505060405180910390f35b341561018157600080fd5b6101d1600480803590602001908201803590602001908080601f0160208091040260200160405190810160405280939291908181526020018383808284378201915050505050509190505061078a565b60405180806020018281038252838181518152602001915080516000925b8184101561023a57828490602001906020020151600260200280838360005b8381101561022957808201518184015260208101905061020e565b5050505090500192600101926101ef565b925050509250505060405180910390f35b341561025657600080fd5b6102af600480803590602001908201803590602001908080601f016020809104026020016040519081016040528093929190818152602001838380828437820191505050505050919080359060200190919050506108f3565b005b34156102bc57600080fd5b6102d26004808035906020019091905050610ac3565b6040518080602001828103825283818151815260200191508051906020019080838360005b838110156103125780820151818401526020810190506102f7565b50505050905090810190601f16801561033f5780820380516001836020036101000a031916815260200191505b509250505060405180910390f35b341561035857600080fd5b6103a8600480803590602001908201803590602001908080601f01602080910402602001604051908101604052809392919081815260200183838082843782019150505050505091905050610b7f565b005b34156103b557600080fd5b6103cb6004808035906020019091905050610eea565b6040518080602001828103825283818151815260200191508051906020019080838360005b8381101561040b5780820151818401526020810190506103f0565b50505050905090810190601f1680156104385780820380516001836020036101000a031916815260200191505b509250505060405180910390f35b341561045157600080fd5b610459610fa6565b6040518082815260200191505060405180910390f35b341561047a57600080fd5b610482610fb3565b604051808273ffffffffffffffffffffffffffffffffffffffff1673ffffffffffffffffffffffffffffffffffffffff16815260200191505060405180910390f35b34156104cf57600080fd5b61051f600480803590602001908201803590602001908080601f01602080910402602001604051908101604052809392919081815260200183838082843782019150505050505091905050610fd8565b005b341561052c57600080fd5b61058e600480803590602001908201803590602001908080601f01602080910402602001604051908101604052809392919081815260200183838082843782019150505050505091908035906020019091908035906020019091905050611235565b005b341561059b57600080fd5b6105eb600480803590602001908201803590602001908080601f01602080910402602001604051908101604052809392919081815260200183838082843782019150505050505091905050611359565b005b34156105f857600080fd5b610648600480803590602001908201803590602001908080601f016020809104026020016040519081016040528093929190818152602001838380828437820191505050505050919050506116ca565b604051808060200183151515158152602001828103825284818151815260200191508051906020019080838360005b83811015610692578082015181840152602081019050610677565b50505050905090810190601f1680156106bf5780820380516001836020036101000a031916815260200191505b50935050505060405180910390f35b6000600280549050905090565b60008060008060036000866040518082805190602001908083835b60208310151561071b57805182526020820191506020810190506020830392506106f6565b6001836020036101000a0380198251168184511680821785525050505050509050019150506040518091039020600019166000191681526020019081526020016000209050806000015481600101548260020160009054906101000a900460ff16935093509350509193909250565b6107926125ec565b6000809054906101000a900473ffffffffffffffffffffffffffffffffffffffff1673ffffffffffffffffffffffffffffffffffffffff163373ffffffffffffffffffffffffffffffffffffffff1614156108ee5760056000836040518082805190602001908083835b60208310151561082157805182526020820191506020810190506020830392506107fc565b6001836020036101000a038019825116818451168082178552505050505050905001915050604051809103902060001916600019168152602001908152602001600020805480602002602001604051908101604052809291908181526020016000905b828210156108e757838290600052602060002090600202016002806020026040519081016040528092919082600280156108d3576020028201915b8154815260200190600101908083116108bf575b505050505081526020019060010190610884565b5050505090505b919050565b60008060009054906101000a900473ffffffffffffffffffffffffffffffffffffffff1673ffffffffffffffffffffffffffffffffffffffff163373ffffffffffffffffffffffffffffffffffffffff161415610abe57826040518082805190602001908083835b602083101515610980578051825260208201915060208101905060208303925061095b565b6001836020036101000a0380198251168184511680821785525050505050509050019150506040518091039020905060036000826000191660001916815260200190815260200160002060020160009054906101000a900460ff161515156109e757600080fd5b600083511115156109f757600080fd5b600082111515610a0657600080fd5b60048054806001018281610a1a9190612600565b916000526020600020900160008590919091509080519060200190610a4092919061262c565b50506060604051908101604052808381526020016000815260200160011515815250600360008360001916600019168152602001908152602001600020600082015181600001556020820151816001015560408201518160020160006101000a81548160ff021916908315150217905550905050610abd83611810565b5b505050565b600281815481101515610ad257fe5b90600052602060002090016000915090508054600181600116156101000203166002900480601f016020809104026020016040519081016040528092919081815260200182805460018160011615610100020316600290048015610b775780601f10610b4c57610100808354040283529160200191610b77565b820191906000526020600020905b815481529060010190602001808311610b5a57829003601f168201915b505050505081565b60008060008060009054906101000a900473ffffffffffffffffffffffffffffffffffffffff1673ffffffffffffffffffffffffffffffffffffffff163373ffffffffffffffffffffffffffffffffffffffff161415610ee457836040518082805190602001908083835b602083101515610c0f5780518252602082019150602081019050602083039250610bea565b6001836020036101000a0380198251168184511680821785525050505050509050019150506040518091039020925060036000846000191660001916815260200190815260200160002060020160009054906101000a900460ff161515610c7557600080fd5b600060036000856000191660001916815260200190815260200160002060020160006101000a81548160ff021916908315150217905550600091505b600280549050821015610ee35760016000600284815481101515610cd157fe5b90600052602060002090016040518082805460018160011615610100020316600290048015610d375780601f10610d15576101008083540402835291820191610d37565b820191906000526020600020905b815481529060010190602001808311610d23575b505091505060405180910390206000191660001916815260200190815260200160002090508060010160009054906101000a900460ff168015610dec57508260001916816000016040518082805460018160011615610100020316600290048015610dd95780601f10610db7576101008083540402835291820191610dd9565b820191906000526020600020905b815481529060010190602001808311610dc5575b5050915050604051809103902060001916145b15610ed6576020604051908101604052806000815250816000019080519060200190610e1992919061262c565b50610ed5600283815481101515610e2c57fe5b90600052602060002090018054600181600116156101000203166002900480601f016020809104026020016040519081016040528092919081815260200182805460018160011615610100020316600290048015610ecb5780601f10610ea057610100808354040283529160200191610ecb565b820191906000526020600020905b815481529060010190602001808311610eae57829003601f168201915b5050505050612037565b5b8180600101925050610cb1565b5b50505050565b600481815481101515610ef957fe5b90600052602060002090016000915090508054600181600116156101000203166002900480601f016020809104026020016040519081016040528092919081815260200182805460018160011615610100020316600290048015610f9e5780601f10610f7357610100808354040283529160200191610f9e565b820191906000526020600020905b815481529060010190602001808311610f8157829003601f168201915b505050505081565b6000600480549050905090565b6000809054906101000a900473ffffffffffffffffffffffffffffffffffffffff1681565b60008060009054906101000a900473ffffffffffffffffffffffffffffffffffffffff1673ffffffffffffffffffffffffffffffffffffffff163373ffffffffffffffffffffffffffffffffffffffff16141561123157816040518082805190602001908083835b6020831015156110655780518252602082019150602081019050602083039250611040565b6001836020036101000a0380198251168184511680821785525050505050509050019150506040518091039020905060016000826000191660001916815260200190815260200160002060010160009054906101000a900460ff161515156110cc57600080fd5b600280548060010182816110e09190612600565b91600052602060002090016000849091909150908051906020019061110692919061262c565b50506040805190810160405280602060405190810160405280600081525081526020016001151581525060016000836000191660001916815260200190815260200160002060008201518160000190805190602001906111679291906126ac565b5060208201518160010160006101000a81548160ff0219169083151502179055509050507f20aaf1122319f8680c5702fbd0dc409b4ba18bd4c06d2ba76851f48684317a5a826040518080602001828103825283818151815260200191508051906020019080838360005b838110156111ed5780820151818401526020810190506111d2565b50505050905090810190601f16801561121a5780820380516001836020036101000a031916815260200191505b509250505060405180910390a161123082612037565b5b5050565b6000809054906101000a900473ffffffffffffffffffffffffffffffffffffffff1673ffffffffffffffffffffffffffffffffffffffff163373ffffffffffffffffffffffffffffffffffffffff1614156113545760056000846040518082805190602001908083835b6020831015156112c4578051825260208201915060208101905060208303925061129f565b6001836020036101000a0380198251168184511680821785525050505050509050019150506040518091039020600019166000191681526020019081526020016000208054806001018281611319919061272c565b91600052602060002090600202016000604080519081016040528086815260200185815250909190915090600261135192919061275e565b50505b505050565b600061136361279e565b6000809054906101000a900473ffffffffffffffffffffffffffffffffffffffff1673ffffffffffffffffffffffffffffffffffffffff163373ffffffffffffffffffffffffffffffffffffffff1614156116c557826040518082805190602001908083835b6020831015156113ee57805182526020820191506020810190506020830392506113c9565b6001836020036101000a0380198251168184511680821785525050505050509050019150506040518091039020915060016000836000191660001916815260200190815260200160002060010160009054906101000a900460ff16151561145457600080fd5b6001600083600019166000191681526020019081526020016000206000018054600181600116156101000203166002900480601f0160208091040260200160405190810160405280929190818152602001828054600181600116156101000203166002900480156115065780601f106114db57610100808354040283529160200191611506565b820191906000526020600020905b8154815290600101906020018083116114e957829003601f168201915b50505050509050600160036000836040518082805190602001908083835b6020831015156115495780518252602082019150602081019050602083039250611524565b6001836020036101000a038019825116818451168082178552505050505050905001915050604051809103902060001916600019168152602001908152602001600020600101600082825403925050819055506040805190810160405280602060405190810160405280600081525081526020016000151581525060016000846000191660001916815260200190815260200160002060008201518160000190805190602001906115fb9291906126ac565b5060208201518160010160006101000a81548160ff0219169083151502179055509050507f816fb948c9b63047dad29d50f39521d74d8931d6bd52593396e25d19dd911446836040518080602001828103825283818151815260200191508051906020019080838360005b83811015611681578082015181840152602081019050611666565b50505050905090810190601f1680156116ae5780820380516001836020036101000a031916815260200191505b509250505060405180910390a16116c481611810565b5b505050565b6116d261279e565b60008060016000856040518082805190602001908083835b60208310151561170f57805182526020820191506020810190506020830392506116ea565b6001836020036101000a0380198251168184511680821785525050505050509050019150506040518091039020600019166000191681526020019081526020016000209050806000018160010160009054906101000a900460ff16818054600181600116156101000203166002900480601f0160208091040260200160405190810160405280929190818152602001828054600181600116156101000203166002900480156117ff5780601f106117d4576101008083540402835291602001916117ff565b820191906000526020600020905b8154815290600101906020018083116117e257829003601f168201915b505050505091509250925050915091565b60008060008060008060036000886040518082805190602001908083835b602083101515611853578051825260208201915060208101905060208303925061182e565b6001836020036101000a038019825116818451168082178552505050505050905001915050604051809103902060001916600019168152602001908152602001600020955060009450600093505b600280549050841015611b9657856000015486600101541015156118c457611b96565b600160006002868154811015156118d757fe5b9060005260206000209001604051808280546001816001161561010002031660029004801561193d5780601f1061191b57610100808354040283529182019161193d565b820191906000526020600020905b815481529060010190602001808311611929575b505091505060405180910390206000191660001916815260200190815260200160002092508260010160009054906101000a900460ff168015611a0257506040518060000190506040518091039020600019168360000160405180828054600181600116156101000203166002900480156119ef5780601f106119cd5761010080835404028352918201916119ef565b820191906000526020600020905b8154815290600101906020018083116119db575b5050915050604051809103902060001916145b15611b895786836000019080519060200190611a1f92919061262c565b50600186600101600082825401925050819055508560000154600654811515611a4457fe5b04850194507fefbb467c527a6700b53f5644cf8e28cb12534569d42e33b58e0e517b37b58536600285815481101515611a7957fe5b906000526020600020900188604051808060200180602001838103835285818154600181600116156101000203166002900481526020019150805460018160011615610100020316600290048015611b125780601f10611ae757610100808354040283529160200191611b12565b820191906000526020600020905b815481529060010190602001808311611af557829003601f168201915b5050838103825284818151815260200191508051906020019080838360005b83811015611b4c578082015181840152602081019050611b31565b50505050905090810190601f168015611b795780820380516001836020036101000a031916815260200191505b5094505050505060405180910390a15b83806001019450506118a1565b600093505b60028054905084101561202e5785600001548660010154101515611bbe5761202e565b60016000600286815481101515611bd157fe5b90600052602060002090016040518082805460018160011615610100020316600290048015611c375780601f10611c15576101008083540402835291820191611c37565b820191906000526020600020905b815481529060010190602001808311611c23575b505091505060405180910390206000191660001916815260200190815260200160002092508260010160009054906101000a900460ff168015611cfd5750604051806000019050604051809103902060001916836000016040518082805460018160011615610100020316600290048015611ce95780601f10611cc7576101008083540402835291820191611ce9565b820191906000526020600020905b815481529060010190602001808311611cd5575b505091505060405180910390206000191614155b1561202157866040518082805190602001908083835b602083101515611d385780518252602082019150602081019050602083039250611d13565b6001836020036101000a038019825116818451168082178552505050505050905001915050604051809103902060001916836000016040518082805460018160011615610100020316600290048015611dc85780601f10611da6576101008083540402835291820191611dc8565b820191906000526020600020905b815481529060010190602001808311611db4575b50509150506040518091039020600019161415156120205760036000846000016040518082805460018160011615610100020316600290048015611e435780601f10611e21576101008083540402835291820191611e43565b820191906000526020600020905b815481529060010190602001808311611e2f575b505091505060405180910390206000191660001916815260200190815260200160002091508160000154600654836001015402811515611e7f57fe5b0490508481111561201f5786836000019080519060200190611ea292919061262c565b5060018660010160008282540192505081905550600182600101600082825403925050819055508560000154600654811515611eda57fe5b04850194507fefbb467c527a6700b53f5644cf8e28cb12534569d42e33b58e0e517b37b58536600285815481101515611f0f57fe5b906000526020600020900188604051808060200180602001838103835285818154600181600116156101000203166002900481526020019150805460018160011615610100020316600290048015611fa85780601f10611f7d57610100808354040283529160200191611fa8565b820191906000526020600020905b815481529060010190602001808311611f8b57829003601f168201915b5050838103825284818151815260200191508051906020019080838360005b83811015611fe2578082015181840152602081019050611fc7565b50505050905090810190601f16801561200f5780820380516001836020036101000a031916815260200191505b5094505050505060405180910390a15b5b5b8380600101945050611b9b565b50505050505050565b61203f61279e565b60008061204a6123e0565b9250836040518082805190602001908083835b602083101515612082578051825260208201915060208101905060208303925061205d565b6001836020036101000a03801982511681845116808217855250505050505090500191505060405180910390209150826040518082805190602001908083835b6020831015156120e757805182526020820191506020810190506020830392506120c2565b6001836020036101000a038019825116818451168082178552505050505050905001915050604051809103902090506040518060000190506040518091039020600019168160001916141561213b576123da565b60405180600001905060405180910390206000191660016000846000191660001916815260200190815260200160002060000160405180828054600181600116156101000203166002900480156121c95780601f106121a75761010080835404028352918201916121c9565b820191906000526020600020905b8154815290600101906020018083116121b5575b50509150506040518091039020600019161415156121e657600080fd5b600360008260001916600019168152602001908152602001600020600001546003600083600019166000191681526020019081526020016000206001015410151561223057600080fd5b604080519081016040528084815260200160011515815250600160008460001916600019168152602001908152602001600020600082015181600001908051906020019061227f9291906126ac565b5060208201518160010160006101000a81548160ff0219169083151502179055509050506001600360008360001916600019168152602001908152602001600020600101600082825401925050819055507fefbb467c527a6700b53f5644cf8e28cb12534569d42e33b58e0e517b37b585368484604051808060200180602001838103835285818151815260200191508051906020019080838360005b8381101561233757808201518184015260208101905061231c565b50505050905090810190601f1680156123645780820380516001836020036101000a031916815260200191505b50838103825284818151815260200191508051906020019080838360005b8381101561239d578082015181840152602081019050612382565b50505050905090810190601f1680156123ca5780820380516001836020036101000a031916815260200191505b5094505050505060405180910390a15b50505050565b6123e861279e565b6123f061279e565b600080600080602060405190810160405280600081525094506006549350600092505b6004805490508310156125e15760048381548110151561242f57fe5b906000526020600020900160405180828054600181600116156101000203166002900480156124955780601f10612473576101008083540402835291820191612495565b820191906000526020600020905b815481529060010190602001808311612481575b5050915050604051809103902091506003600083600019166000191681526020019081526020016000209050806000015481600101541015156124d7576125d4565b8060020160009054906101000a900460ff1680156124fe5750806000015484028160010154105b156125d357806000015460065482600101540281151561251a57fe5b04935060048381548110151561252c57fe5b90600052602060002090018054600181600116156101000203166002900480601f0160208091040260200160405190810160405280929190818152602001828054600181600116156101000203166002900480156125cb5780601f106125a0576101008083540402835291602001916125cb565b820191906000526020600020905b8154815290600101906020018083116125ae57829003601f168201915b505050505094505b5b8280600101935050612413565b849550505050505090565b602060405190810160405280600081525090565b8154818355818115116126275781836000526020600020918201910161262691906127b2565b5b505050565b828054600181600116156101000203166002900490600052602060002090601f016020900481019282601f1061266d57805160ff191683800117855561269b565b8280016001018555821561269b579182015b8281111561269a57825182559160200191906001019061267f565b5b5090506126a891906127de565b5090565b828054600181600116156101000203166002900490600052602060002090601f016020900481019282601f106126ed57805160ff191683800117855561271b565b8280016001018555821561271b579182015b8281111561271a5782518255916020019190600101906126ff565b5b50905061272891906127de565b5090565b815481835581811511612759576002028160020283600052602060002091820191016127589190612803565b5b505050565b826002810192821561278d579160200282015b8281111561278c578251825591602001919060010190612771565b5b50905061279a91906127de565b5090565b602060405190810160405280600081525090565b6127db91905b808211156127d757600081816127ce919061282f565b506001016127b8565b5090565b90565b61280091905b808211156127fc5760008160009055506001016127e4565b5090565b90565b61282c91905b80821115612828576000818161281f9190612877565b50600201612809565b5090565b90565b50805460018160011615610100020316600290046000825580601f106128555750612874565b601f01602090049060005260206000209081019061287391906127de565b5b50565b5060008155600101600090555600a165627a7a7230582026f7e080d4a0fea6efabf9b7e6ba3aac63c66d7fc5fec14351469338b341e2760029",
  "source": "    pragma solidity ^0.4.15;\n\n    contract Canteen {\n        struct Member {\n            string imageName;\n            bool active;\n        }\n\n        struct Image {\n            uint replicas;\n            uint deployed;\n            bool active;\n        }\n\n        address public owner;\n\n        event MemberJoin(string host);\n        event MemberLeave(string host);\n        event MemberImageUpdate(string host, string image);\n\n        mapping(bytes32 => Member) memberDetails;\n        string[] public members;\n\n        mapping(bytes32 => Image) imageDetails;\n        string[] public images;\n        mapping (bytes32 => uint[2][]) exposedPortsForImages;\n\n        uint MULT = 100000;\n\n        modifier restricted() {\n            if (msg.sender == owner) _;\n        }\n\n        function Canteen() public {\n            owner = msg.sender;\n        }\n\n        function addMember(string host) restricted public {\n            bytes32 hashedHost = keccak256(host);\n            require(!memberDetails[hashedHost].active);\n\n            members.push(host);\n            memberDetails[hashedHost] = Member(\"\", true);\n\n            MemberJoin(host);\n            setImageForMember(host);\n        }\n\n        function removeMember(string host) restricted public {\n            bytes32 hashedHost = keccak256(host);\n            require(memberDetails[hashedHost].active);\n\n            string memory affectedImage = memberDetails[hashedHost].imageName;\n\n            imageDetails[keccak256(affectedImage)].deployed -= 1;\n            memberDetails[hashedHost] = Member(\"\", false);\n\n            MemberLeave(host);\n\n            // Need to rebalance\n            // Eg. (A, 4), (B, 4) are two images. We have 4 members, and we remove 2\n            // We now have A A null null -> We would need A B null null\n            rebalanceWithUnfortunateImage(affectedImage);\n        }\n\n        function addImage(string name, uint replicas) restricted public {\n            bytes32 hashedName = keccak256(name);\n            require(!imageDetails[hashedName].active);\n            require(bytes(name).length > 0);\n            require(replicas > 0);\n\n            images.push(name);\n            imageDetails[hashedName] = Image(replicas, 0, true);\n\n            // Need to rebalance\n            // Eg. (A, 4) is one image. We have 4 members. Now we add (B, 4)\n            // We now have A A A A -> We would need A B A B\n            rebalanceWithUnfortunateImage(name);\n        }\n\n        function removeImage(string name) restricted public {\n            bytes32 hashedName = keccak256(name);\n            require(imageDetails[hashedName].active);\n\n            imageDetails[hashedName].active = false;\n\n            // Reassigns all the affected hosts to new images\n            for (uint i = 0; i < members.length; i++) {\n                Member storage member = memberDetails[keccak256(members[i])];\n                if (member.active && keccak256(member.imageName) == hashedName) {\n                    member.imageName = \"\";\n                    setImageForMember(members[i]);\n                }\n            }\n        }\n\n        function addPortForImage(string name, uint from, uint to) restricted public {\n            exposedPortsForImages[keccak256(name)].push([from, to]);\n        }\n\n         function getPortsForImage(string name) restricted public view returns (uint[2][]) {\n            return exposedPortsForImages[keccak256(name)];\n        }\n\n        function getMemberDetails(string host) public constant returns (string, bool) {\n            Member storage details = memberDetails[keccak256(host)];\n            return (details.imageName, details.active);\n        }\n\n        function getImageDetails(string name) public constant returns (uint, uint, bool) {\n            Image storage details = imageDetails[keccak256(name)];\n            return (details.replicas, details.deployed, details.active);\n        }\n\n        function rebalanceWithUnfortunateImage(string newImageName) private {\n            Image storage newImage = imageDetails[keccak256(newImageName)];\n            uint currentRatio = 0;\n            uint i;\n            Member storage member;\n\n            for (i = 0; i < members.length; i++) {\n                if (newImage.deployed >= newImage.replicas)\n                    break;\n\n                member = memberDetails[keccak256(members[i])];\n                // Looking for empty hosts and filling them up\n                if (member.active && keccak256(member.imageName) == keccak256(\"\")) {\n                    member.imageName = newImageName;\n                    newImage.deployed += 1;\n                    currentRatio += (MULT / newImage.replicas);\n                    MemberImageUpdate(members[i], newImageName);\n                }\n            }\n\n            for (i = 0; i < members.length; i++) {\n                if (newImage.deployed >= newImage.replicas)\n                    break;\n\n                member = memberDetails[keccak256(members[i])];\n                // Now we are processing those hosts which already have images on them\n                if (member.active && keccak256(member.imageName) != keccak256(\"\")) {\n                    // Only check if the machine has some other host running\n                    if (keccak256(member.imageName) != keccak256(newImageName)) {\n                        Image storage image = imageDetails[keccak256(member.imageName)];\n                        uint ratio = (image.deployed * MULT) / image.replicas;\n                        // if (ratio < currentRatio + (MULT / newImage.replicas)) {\n                        if (ratio > currentRatio) {\n                            member.imageName = newImageName;\n                            newImage.deployed += 1;\n                            image.deployed -= 1;\n                            currentRatio += (MULT / newImage.replicas);\n                            MemberImageUpdate(members[i], newImageName);\n                        }\n                    }\n                }\n            }\n        }\n\n        function setImageForMember(string host) private {\n            string memory image = getNextImageToUse();\n            bytes32 hashedHost = keccak256(host);\n            bytes32 hashedImage = keccak256(image);\n            if (hashedImage == keccak256(\"\")) {\n                return;\n            }\n\n            // Host currently has no image, and image hasn't reached its limit yet.\n            require(keccak256(memberDetails[hashedHost].imageName) == keccak256(\"\"));\n            require(imageDetails[hashedImage].deployed < imageDetails[hashedImage].replicas);\n\n            memberDetails[hashedHost] = Member(image, true);\n            imageDetails[hashedImage].deployed += 1;\n            MemberImageUpdate(host, image);\n        }\n\n        // Selects image with lowest usage, scales equal usage of all replicas,\n        // with respect to the ratio of the replicas required.\n        function getNextImageToUse() private view returns (string) {\n            string memory bestImage = \"\";\n            uint lowestUsage = MULT;\n\n            for (uint i = 0; i < images.length; i++) {\n                bytes32 hash = keccak256(images[i]);\n                Image storage image = imageDetails[hash];\n\n                if (image.deployed >= image.replicas)\n                    continue;\n\n                // deployed / usage < lowestUsage -> this has lower usage\n                if (image.active && image.deployed < lowestUsage * image.replicas) {\n                    lowestUsage = (image.deployed * MULT) / image.replicas;\n                    bestImage = images[i];\n                }\n            }\n\n            return bestImage;\n        }\n\n        function getMembersCount() public view returns (uint) {\n            return members.length;\n        }\n\n        function getImagesCount() public view returns (uint) {\n            return images.length;\n        }\n    }",
  "sourcePath": "/home/kenta/Desktop/canteen/contracts/Canteen.sol",
  "compiler": {
    "name": "solc",
    "version": "0.4.19+commit.c4cbbb05.Emscripten.clang"
  },
  "schemaVersion": "1.0.1",
  "updatedAt": "2018-02-18T13:31:42.343Z"
}